:100000000200269999112C9961A9FF02095F328D8E
:100010005D8DA7B9C8BB1F9D6D99AF998B1DCD1084
:10002000BBD9E802099775A80075892275985075A3
:10003000884075B800758C33758A33758DFC758B67
:10004000FC752C0075A8927580FF7590FF75A0FF58
:1000500075B0FF758108120098790C7A74900AD5F2
:1000600012014AEC422C1201361201A2306F15C265
:100070006F2065FD75993DD265D2681202A6120106
:10008000171200D91200FB2065FA759900E52E447D
:100090000F52A0D28C02015478009000007B207C8B
:1000A0000DE583B50408E582B503030200B5E493CA
:1000B0006200A380ECE4B800030200BED2E4780C36
:1000C00076AD08B880FA780CB6AD030200D3D2E35F
:1000D0000200D708B880F1FC22D2A33069030200E5
:1000E000261201A2306FF4C26FA85774FF7D12561A
:1000F00008DDFCB4FFE52065FD01262065FDD26525
:1001000020630330640A75993EC263C2640201131E
:100110007599002065FD222065FDA855D265869958
:1001200075587F75597F755A7F755B7F2065FD75A2
:100130005458755557222065FD759901D265206583
:10014000FDE5B054FCF599D265227B00EB93F709ED
:100150000BDAF922A955B77F02215E1209FF306937
:10016000052065FD0126206418306B0DC26B12015D
:10017000A2306F05C26F1202A6306A05C26A120170
:10018000F41205DF30D5031205EF20630620660365
:1001900002019612094C3064BBC26474B51207B4F4
:1001A00080B2752919308C287400B527030201B874
:1001B000D527051201F47400B526030201C4D52623
:1001C0000312023DE4B525030201D0D52502D26316
:1001D000A856855756885718754D00900B49E54D20
:1001E00093F590054D054D08A6807590FFB47FEE00
:1001F000120264228543F01204C1F8E5327018201F
:10020000610675420002023AE531B5420574B40256
:10021000021EE54202021EF542753200E542305BE5
:10022000131207B430640820680AC264020234E57D
:100230004212050D744428F88628220000206C180C
:1002400075260FE52F440FC443A00F52A0D26CA215
:100250006D926EC26D02026343A00FC26C306E03DA
:1002600075260322754D00900B49A857A9567D129B
:100270008638E7B5380302029DF536E54D93F590D3
:10028000E5807590FFFAE5385AFCE5365202E5360E
:1002900055384C4AF6B5360302029DD26F054D051E
:1002A0004D0809DDCB22754D00900B4985563785E9
:1002B0005739C25FA8398638A837E6F536B538030E
:1002C0000202CF1202E920641A1203C82064140546
:1002D0004D054D05370539E54D900B4993B4FFD4D5
:1002E0000202E8206802C26422E538F4FAE536F436
:1002F0005A6AFCF5306040754C00900B6E7D08C367
:10030000EC13FC502C12033B20D52612043E306423
:100310001DFAE53865365538596AA939F7054D058E
:100320004D05390537900B49120475020337120346
:10033000A7054C054CDDC8900B4922C2D5E54C9071
:100340000B6E93F44538B4FF0122A83976FF855728
:1003500035A856900B6EA935E7B4FF030203784524
:1003600038F9E54C93F449B4FF03020378E9F4F556
:10037000F056A93547F7D2D5053508E5572413B50A
:1003800035D430D51DE5F055364538A939F7F5385F
:10039000F4F9E536F45969A94C2309B908FBFC02C4
:1003A00003A6A839A63822120492FB1207B412043D
:1003B000C130610F2448F9872785F0438B427528A7
:1003C00000C26AEB12050D22E53865365538601417
:1003D000FC754C007D08EC13FC50031203E5054C42
:1003E000054CDDF222120492FB1204C13062381275
:1003F000043E306414C530F45530A839F6054D0577
:100400004D0539053712047522D26212052C30D5FC
:1004100009C2D5EB1207B402042A205F0DD25F7423
:10042000B31207B402042A306113C26212052C20F1
:10043000D50B752800752700C26A75420022C26478
:10044000A8540853005B8600B87F0122D2641204CE
:100450005222900B6E7800E54C93B4FF0302046ABD
:10046000E8D313F8054C054C80EDE8F4F95538FA5B
:10047000E536584A22A939A837900B49E54D93B47F
:10048000FF030204918602A702054D054D0809806D
:10049000EB22E54C04900B6E93F5F0E54D04900BC8
:1004A000499325F0F5F0E54D9354F0B4F006900B28
:1004B0007F0204B7900C1FE5F093C5F00493C5F0DC
:1004C00022C262C261E5F075F000335007A93DAA6F
:1004D0003B0204D8A93CAA3A925DC313CA5A6005EC
:1004E000D262020504EA59601BD261305D07E54122
:1004F000A93F0204F9E540A93E5A6002D2F1E95A47
:100500006002D2F0E5F08AF0A25D92F722B4AF0368
:10051000020528B4AE0302052B43A00FE52F44F0DB
:1005200052A0752A0602052B2060EE2285573585DC
:100530004D34854C33754D00A935E7F530B4FF03D4
:100540000205A1754C00E53013F53040479192F556
:1005500032E5F033500D306205E53B02056DE53DB7
:1005600002056D306205E53A02056DE53C55F06027
:1005700023305C1BE5F0B5031B2065FD7599B9D2EE
:10058000652065FD853299853231D265020594D2A8
:10059000D50205B2054C054CE54C900B6E93B4FFAB
:1005A000A5054D054D0535900B49E54D93B4FF88E4
:1005B000C2D530D5033062067532000205D885F009
:1005C00043E532B542067532000205D891C1244890
:1005D000F98727752800C26A85334C85344D22C2BD
:1005E000D5E55045514552455330E702D2D5221248
:1005F000079C3063012220E0061206030206021265
:1006000007D022FA547823C4B40005D263020659F5
:10061000B40F0612065A0206591206BA305E07AC2B
:100620003DAD3B02062AAC3CAD3AEA540613B40198
:100630000C1206DB2067031206FC02065920670530
:10064000D263020659B40306120739020659B402EE
:1006500005D2630206591207702212079C206359C3
:10066000306705D2630206B975F00584700BE5F0BA
:1006700075F0028425F0020693C0F075F003A4F82B
:10068000D0E075F003A475F0058428A8F0B8030045
:10069000400104F8EA5406C313F5302448F9A700D2
:1006A00012079C206313206705D2630206B9900CE1
:1006B0009F93F9E5302444C9F722EA5478C333C440
:1006C000C25EB407030206CA5005D25E0206D2C358
:1006D0009407FB7480C313DBFDFB22EB305E084202
:1006E0003DF4523B0206EC423CF4523A2065FD7563
:1006F00099BAD2657531BAC262B12C22EBF4305E80
:1007000007523F524102070C523E524012079C20B2
:100710006326206705D26302073813F8500BEB30CD
:100720005E05423F020729423EE813500BEB305E64
:10073000054241020738424022EB305E0A423BF458
:10074000AC3D523D02074E423AF4AC3C523C20656F
:10075000FD7599BAD2657531BAEB23A25E13FBD24F
:1007600062D25CB12CC25CEB5C6004C262B12C2230
:10077000EBF4305E09523BAC3D523D020784523AE5
:10078000AC3C523C2065FD7599BAD2657531BAF41E
:100790005C6008E5426004C262B12C22A84FE6B456
:1007A0007F03D26322A2E79267C2E7767F085300F5
:1007B00053884F22FAE55404545BF9B77F0FA70220
:1007C0008954BAB4030207CA8A31C26422D26422AD
:1007D000FA540603FBEA547823C4B40120BB001486
:1007E000D268D2742065FD7599B7D2657531B7E5C9
:1007F0002E0208A1C274C268E52E0208A1B4033516
:10080000BB011812079C20630F206705D263020802
:1008100018532FF0422FC27B020908BB0312206C31
:100820000C752A06E52F44F043A00F52A0020908D8
:10083000D27B020908B40449BB011912079C20634A
:100840002C206705D26302086D532F0FC4422FC2BC
:100850007F020908BB031FE526701275260FE52FDE
:10086000440FC443A00F52A0D26C020908A26E929A
:100870006DD26E020908BB0022D27F020908000077
:1008800000B4022712079C20637E206705D2630212
:100890000908C4BB0105452E0208A1BB0068F45538
:1008A0002E53A00F42A0F52E020908B4050612012E
:1008B00036020908B40903020A1BB40B09753D008E
:1008C000753C000208DCB40710BB0105D2600209C8
:1008D00008BB0032C260020908B4080E7528007512
:1008E0002700C26A754200020908B40C10BB01055A
:1008F000D25B020908BB000EC25B020908B40A06FB
:10090000120909020908D26322900B03793A7A0886
:1009100012014A900AF8792F7A0112014A900B0DC0
:1009200079447A0812014AC2602065FD7599BA754A
:1009300031BAD265900B03740193D2E7FBD262D235
:100940005C12052CC25CC26212052C222065FDC21D
:1009500063C266D2657599B67531B62065FD22C24F
:10096000AFAED0FF7400B529030209731529B5296C
:1009700002D26BB528030209801528B52802D26A75
:10098000B52A03020991152AB52A06B5260343A004
:100990000FEF8ED0D2AF32C2AFC000AED0FF3099D1
:1009A00021C265A855B67F05C2990209F720680DD6
:1009B0008699767FE55504545BF555D265C2990258
:1009C00009F7E599602F04602C14B4FD05D2690283
:1009D00009F5B47F05D2660209F5F8E54E045453D3
:1009E000C8B67F0FF6884E75250020E70875250CE0
:1009F0000209F5D266C298EF8ED0D000D2AF32A8ED
:100A000055B67F03C2652220651020680D86997651
:100A10007FE55504545BF555D265222065FDC2AFD4
:100A20007599B83098FDC298E599B4CB0A3099FD14
:100A3000C2997599B8412320E71320E61320E515E4
:100A40005403601614601814601A020A6902002622
:100A5000120A6E80CE120A8280C9120A9D80C412C8
:100A60000AA780BF120AB980BA120ACB80B53098A3
:100A7000FDC298E599B4CF01223099FDC299F5994C
:100A800080EC3098FDC298E599F590E47590FF7B75
:100A900009DBFEE5803099FDC299F59922E58030A9
:100AA00099FDC299F599223098FDC298E599F59083
:100AB0003099FDC2997599AC223098FDC298E5999C
:100AC000F5A03099FDC2997599AC22E5B03099FD39
:100AD000C299F5992200000000000000000000000B
:100AE0000000000000000000000000000000000006
:100AF000000000000880000022000000000000004C
:100B00000000000002407160110000000064644BAE
:100B10004B3C243C2400004F507F7F7F7F57585C24
:100B20006E7F7F7F7FFFFFFFFFFFFFFFFFFFFFFF66
:100B3000FFFFFFFFFFFFFFFFFFFFFFFFFFFFFFFFC5
:100B4000FFFFFFFFFFFFFFFFFFF000F110F220F3B8
:100B500030F440F550F660F770F880F9900F001F00
:100B6000102F203F304F405F506F607F70FFFE00BE
:100B7000FD02FB04F706EF08DF0ABF0C7F0EFF48FB
:100B80000049004A004B004C004D004E00AE82521E
:100B900000530054005500B284B184B084AF82C3C6
:100BA000C0C2C0C1C0C0C0BFC05C10C4C0CAC0C940
:100BB000C0C8C0C7C0C6C0BE885D10C5C05610CE74
:100BC000C0CDC0CCC0CBC058105E1057105F10D441
:100BD000C0D3C0D2C0D1C0D0C060105A105910D9F3
:100BE000C0D8C0D7C0D6C0640861105B106908DEE9
:100BF000C0DDC0DCC0DBC065086A0866086B08E3BE
:100C0000C0E2C0E1C0E0C068086C0867086D08E891
:100C1000C0E7C0E6C0E5C07004750471047604ED59
:100C2000C0ECC0EBC0EAC07304770472047804F32C
:100C3000C0F2C0F1C0F0C0EFC07904BC907404F7FA
:100C4000C0A781BD88F6C08D207C02F5C08A20AB8C
:100C500040FCC0FBC0FAC08E207D02F9C08B209200
:100C6000A096A099A09DA0AA408C208F20A1A0931F
:100C7000A097A0A8819AA09EA08401A2A080019420
:100C8000A098A09BA0A9409FA08501A3A081019549
:100C9000A09CA0A0A0A4A08301860182018701FFDF
:100CA000FFFFFFFFFFFFFFFFFFFFFFFAE7D6C8BC14
:100CB000B0A79E968F88827D73736F6B6764615E49
:100CC0005B585653514F4D4B494746444341403F73
:100CD0003D3C3B3A39383736353433323130302FBA
:100CE0002E2D2D2C2B2B2A2A29292827272626266C
:100CF0002525242423232222222121212020201FD4
:100D00001F1F1E1E1E271D1D1D1C1C1C1C1B1B1B0C
:100D10001B1A1A1A1A19191919191818181818A1BA
:100D200000000000000000000000000000000000C3
:100D300000000000000000000000000000000000B3
:100D400000000000000000000000000000000000A3
:100D50000000000000000000000000000000000093
:100FF00000000000000000000000000000020026C9
:00000001FF
